:100000000C9434000C9453000C9451000C94510047
:100010000C9451000C9451000C9451000C9451001C
:100020000C9451000C9451000C9451000C9451000C
:100030000C9451000C9485000C9451000C945100C8
:100040000C948F000C9451000C9451000C945100AE
:100050000C9451000C9451000C9451000C945100DC
:100060000C9451000C94510011241FBECFEFD8E026
:10007000DEBFCDBF12E0A0E0B1E0E4EAF2E002C0F2
:1000800005900D92AA36B107D9F722E0AAE6B2E0B0
:1000900001C01D92A137B207E1F70E942D010C9417
:1000A00050010C9400001F920F920FB60F92112472
:1000B0005F936F937F938F939F93AF93BF93EF93D0
:1000C000FF93F894E4E8F0E08081918190936D02D1
:1000D00080936C021092700210926F0268E671E0D9
:1000E0000E943C0160936E02118210827894FF910D
:1000F000EF91BF91AF919F918F917F916F915F91A0
:100100000F900FBE0F901F9018951F920F920FB671
:100110000F9211240F900FBE0F901F9018951F92F1
:100120000F920FB60F9211242F938F939F93F894F1
:1001300080916F029091700201969093700280936B
:100140006F0280916E02819586BD80916F029091C1
:1001500070028836914021F41092700210926F0262
:1001600078949F918F912F910F900FBE0F901F90B9
:1001700018955D9847E050E0E1E0F0E070E09BB159
:100180009F739BB99BB19F01042E02C0220F331FA6
:100190000A94E2F726233723042E02C035952795CB
:1001A0000A94E2F7A6E0220F331FAA95E1F7922BFB
:1001B0009BB95F9A2AE12A95F1F700C04150510995
:1001C000F0F647E050E061E070E090E02BB12F7373
:1001D0002BB9EBB19B01042E02C0220F331F0A94EE
:1001E000E2F728233923042E02C0359527950A9477
:1001F000E2F7F6E0220F331FFA95E1F7E22BEBB9B5
:100200005F9A2AE12A95F1F700C041505109F0F6B2
:100210008FEC97E00197F1F700C000005D9A089518
:100220008E5F9E4FFC01608180E00C94B900E9E68E
:10023000F0E080818160808381E08DBB85B5836043
:1002400085BDEEE6F0E0808181608083E1E8F0E04A
:10025000808183608083789408958FEF84B98AB910
:1002600052988FE387B90E94170180916F02909195
:1002700070020E941001F9CFAA1BBB1B51E107C0FD
:10028000AA1FBB1FA617B70710F0A61BB70B881F26
:10029000991F5A95A9F780959095BC01CD010895B5
:0402A000F894FFCF00
:1002A4000101FFFFFFFF181818181818181818185C
:1002B4001818FFFFFFFF000000000000FFFFFFFF12
:1002C400999999999999999999999999999999999A
:1002D400000000000000FFFFFFFF0303030303030C
:1002E40003030303030303030303000000000000EC
:1002F400FFFFFFFF030303030303030303030303DA
:1003040003030303000000000000FFFFFFFFC3C35B
:10031400C3C3C3C3C3C3C3C3C3C3FFFFFFFF00003F
:1003240000000000000000000000000000000000C9
:1003340000000000000000000000000000000000B9
:1003440000000000000000000000000000000000A9
:100354000000000000000000000000000000000099
:100364000000000000000000000000000000000089
:100374000000000000000000000000000000000079
:100384000000000000000000000000000000000069
:100394000000000000000000000000000000000059
:1003A4000000000000000000000000000000000049
:1003B4000000000000000000000000000000000039
:1003C4000000000000000000000000000000000029
:1003D4000000000000000000000000000000000019
:1003E4000000000000000000000000000000000009
:1003F40000000000000000000000000000000000F9
:0A04040000000000000000000000EE
:00000001FF
